{
  "contractName": "SupplyChain",
  "abi": [
    {
      "constant": true,
      "inputs": [
        {
          "name": "account",
          "type": "address"
        }
      ],
      "name": "isManufacturer",
      "outputs": [
        {
          "name": "",
          "type": "bool"
        }
      ],
      "payable": false,
      "stateMutability": "view",
      "type": "function"
    },
    {
      "constant": true,
      "inputs": [
        {
          "name": "account",
          "type": "address"
        }
      ],
      "name": "isCustomer",
      "outputs": [
        {
          "name": "",
          "type": "bool"
        }
      ],
      "payable": false,
      "stateMutability": "view",
      "type": "function"
    },
    {
      "constant": true,
      "inputs": [
        {
          "name": "account",
          "type": "address"
        }
      ],
      "name": "isRetailer",
      "outputs": [
        {
          "name": "",
          "type": "bool"
        }
      ],
      "payable": false,
      "stateMutability": "view",
      "type": "function"
    },
    {
      "constant": false,
      "inputs": [
        {
          "name": "account",
          "type": "address"
        }
      ],
      "name": "addManufacturer",
      "outputs": [],
      "payable": false,
      "stateMutability": "nonpayable",
      "type": "function"
    },
    {
      "constant": false,
      "inputs": [],
      "name": "renounceOwnership",
      "outputs": [],
      "payable": false,
      "stateMutability": "nonpayable",
      "type": "function"
    },
    {
      "constant": true,
      "inputs": [],
      "name": "owner",
      "outputs": [
        {
          "name": "",
          "type": "address"
        }
      ],
      "payable": false,
      "stateMutability": "view",
      "type": "function"
    },
    {
      "constant": false,
      "inputs": [
        {
          "name": "account",
          "type": "address"
        }
      ],
      "name": "addRetailer",
      "outputs": [],
      "payable": false,
      "stateMutability": "nonpayable",
      "type": "function"
    },
    {
      "constant": true,
      "inputs": [],
      "name": "isOwner",
      "outputs": [
        {
          "name": "",
          "type": "bool"
        }
      ],
      "payable": false,
      "stateMutability": "view",
      "type": "function"
    },
    {
      "constant": true,
      "inputs": [],
      "name": "addressofsender",
      "outputs": [
        {
          "name": "",
          "type": "address"
        }
      ],
      "payable": false,
      "stateMutability": "view",
      "type": "function"
    },
    {
      "constant": false,
      "inputs": [],
      "name": "renounceCustomer",
      "outputs": [],
      "payable": false,
      "stateMutability": "nonpayable",
      "type": "function"
    },
    {
      "constant": false,
      "inputs": [
        {
          "name": "account",
          "type": "address"
        }
      ],
      "name": "addCustomer",
      "outputs": [],
      "payable": false,
      "stateMutability": "nonpayable",
      "type": "function"
    },
    {
      "constant": false,
      "inputs": [],
      "name": "renounceRetailer",
      "outputs": [],
      "payable": false,
      "stateMutability": "nonpayable",
      "type": "function"
    },
    {
      "constant": false,
      "inputs": [],
      "name": "renounceManufacturer",
      "outputs": [],
      "payable": false,
      "stateMutability": "nonpayable",
      "type": "function"
    },
    {
      "constant": false,
      "inputs": [
        {
          "name": "newOwner",
          "type": "address"
        }
      ],
      "name": "transferOwnership",
      "outputs": [],
      "payable": false,
      "stateMutability": "nonpayable",
      "type": "function"
    },
    {
      "inputs": [],
      "payable": true,
      "stateMutability": "payable",
      "type": "constructor"
    },
    {
      "anonymous": false,
      "inputs": [
        {
          "indexed": false,
          "name": "upc",
          "type": "uint256"
        }
      ],
      "name": "Processed",
      "type": "event"
    },
    {
      "anonymous": false,
      "inputs": [
        {
          "indexed": false,
          "name": "upc",
          "type": "uint256"
        }
      ],
      "name": "Packed",
      "type": "event"
    },
    {
      "anonymous": false,
      "inputs": [
        {
          "indexed": false,
          "name": "upc",
          "type": "uint256"
        }
      ],
      "name": "Added",
      "type": "event"
    },
    {
      "anonymous": false,
      "inputs": [
        {
          "indexed": false,
          "name": "upc",
          "type": "uint256"
        }
      ],
      "name": "Received",
      "type": "event"
    },
    {
      "anonymous": false,
      "inputs": [
        {
          "indexed": false,
          "name": "upc",
          "type": "uint256"
        }
      ],
      "name": "Shipped",
      "type": "event"
    },
    {
      "anonymous": false,
      "inputs": [
        {
          "indexed": false,
          "name": "upc",
          "type": "uint256"
        }
      ],
      "name": "Delivered",
      "type": "event"
    },
    {
      "anonymous": false,
      "inputs": [
        {
          "indexed": true,
          "name": "account",
          "type": "address"
        }
      ],
      "name": "CustomerAdded",
      "type": "event"
    },
    {
      "anonymous": false,
      "inputs": [
        {
          "indexed": true,
          "name": "account",
          "type": "address"
        }
      ],
      "name": "CustomerRemoved",
      "type": "event"
    },
    {
      "anonymous": false,
      "inputs": [
        {
          "indexed": true,
          "name": "account",
          "type": "address"
        }
      ],
      "name": "RetailerAdded",
      "type": "event"
    },
    {
      "anonymous": false,
      "inputs": [
        {
          "indexed": true,
          "name": "account",
          "type": "address"
        }
      ],
      "name": "RetailerRemoved",
      "type": "event"
    },
    {
      "anonymous": false,
      "inputs": [
        {
          "indexed": true,
          "name": "account",
          "type": "address"
        }
      ],
      "name": "ManufacturerAdded",
      "type": "event"
    },
    {
      "anonymous": false,
      "inputs": [
        {
          "indexed": true,
          "name": "account",
          "type": "address"
        }
      ],
      "name": "ManufacturerRemoved",
      "type": "event"
    },
    {
      "anonymous": false,
      "inputs": [
        {
          "indexed": true,
          "name": "oldOwner",
          "type": "address"
        },
        {
          "indexed": true,
          "name": "newOwner",
          "type": "address"
        }
      ],
      "name": "TransferOwnership",
      "type": "event"
    },
    {
      "constant": false,
      "inputs": [],
      "name": "kill",
      "outputs": [],
      "payable": false,
      "stateMutability": "nonpayable",
      "type": "function"
    },
    {
      "constant": false,
      "inputs": [
        {
          "name": "_upc",
          "type": "uint256"
        },
        {
          "name": "_originManufacturerID",
          "type": "address"
        },
        {
          "name": "_originManufacturerName",
          "type": "string"
        },
        {
          "name": "_originManufacturerInformation",
          "type": "string"
        },
        {
          "name": "_originManufacturerLatitude",
          "type": "string"
        },
        {
          "name": "_originManufacturerLongitude",
          "type": "string"
        }
      ],
      "name": "processItem",
      "outputs": [],
      "payable": false,
      "stateMutability": "nonpayable",
      "type": "function"
    },
    {
      "constant": false,
      "inputs": [
        {
          "name": "_upc",
          "type": "uint256"
        }
      ],
      "name": "packItem",
      "outputs": [],
      "payable": false,
      "stateMutability": "nonpayable",
      "type": "function"
    },
    {
      "constant": false,
      "inputs": [
        {
          "name": "_upc",
          "type": "uint256"
        },
        {
          "name": "_price",
          "type": "uint256"
        },
        {
          "name": "retailerID",
          "type": "address"
        }
      ],
      "name": "addItem",
      "outputs": [],
      "payable": false,
      "stateMutability": "nonpayable",
      "type": "function"
    },
    {
      "constant": false,
      "inputs": [
        {
          "name": "_upc",
          "type": "uint256"
        },
        {
          "name": "productNotes",
          "type": "string"
        }
      ],
      "name": "receiveItem",
      "outputs": [],
      "payable": false,
      "stateMutability": "nonpayable",
      "type": "function"
    },
    {
      "constant": false,
      "inputs": [
        {
          "name": "_upc",
          "type": "uint256"
        },
        {
          "name": "customerID",
          "type": "address"
        }
      ],
      "name": "shipItem",
      "outputs": [],
      "payable": false,
      "stateMutability": "nonpayable",
      "type": "function"
    },
    {
      "constant": false,
      "inputs": [
        {
          "name": "_upc",
          "type": "uint256"
        }
      ],
      "name": "buyItem",
      "outputs": [],
      "payable": true,
      "stateMutability": "payable",
      "type": "function"
    },
    {
      "constant": true,
      "inputs": [
        {
          "name": "_upc",
          "type": "uint256"
        }
      ],
      "name": "fetchItem",
      "outputs": [
        {
          "name": "itemSKU",
          "type": "uint256"
        },
        {
          "name": "itemUPC",
          "type": "uint256"
        },
        {
          "name": "ownerID",
          "type": "address"
        },
        {
          "name": "originManufacturerID",
          "type": "address"
        },
        {
          "name": "originManufacturerName",
          "type": "string"
        },
        {
          "name": "itemState",
          "type": "uint8"
        },
        {
          "name": "productPrice",
          "type": "uint256"
        },
        {
          "name": "retailerID",
          "type": "address"
        },
        {
          "name": "customerID",
          "type": "address"
        }
      ],
      "payable": false,
      "stateMutability": "view",
      "type": "function"
    },
    {
      "constant": true,
      "inputs": [
        {
          "name": "_upc",
          "type": "uint256"
        }
      ],
      "name": "fetchItemData",
      "outputs": [
        {
          "name": "productID",
          "type": "uint256"
        },
        {
          "name": "itemUPC",
          "type": "uint256"
        },
        {
          "name": "productPrice",
          "type": "uint256"
        },
        {
          "name": "productNotes",
          "type": "string"
        },
        {
          "name": "originManufacturerName",
          "type": "string"
        },
        {
          "name": "originManufacturerInformation",
          "type": "string"
        },
        {
          "name": "originManufacturerLatitude",
          "type": "string"
        },
        {
          "name": "originManufacturerLongitude",
          "type": "string"
        }
      ],
      "payable": false,
      "stateMutability": "view",
      "type": "function"
    }
  ],
  "bytecode": "0x6080604052336000806101000a81548173ffffffffffffffffffffffffffffffffffffffff021916908373ffffffffffffffffffffffffffffffffffffffff1602179055506000809054906101000a900473ffffffffffffffffffffffffffffffffffffffff1673ffffffffffffffffffffffffffffffffffffffff16600073ffffffffffffffffffffffffffffffffffffffff167f5c486528ec3e3f0ea91181cff8116f02bfa350e03b8b6f12e00765adbb5af85c60405160405180910390a3620000da3362000124640100000000026401000000009004565b620000f4336200018e640100000000026401000000009004565b6200010e33620001f8640100000000026401000000009004565b60016006819055506001600581905550620003ba565b6200014881600162000262640100000000026200275c179091906401000000009004565b8073ffffffffffffffffffffffffffffffffffffffff167f561138658ca49a8540dc70dcfe64c9026c1c5b9344642242dd6562970f9c127860405160405180910390a250565b620001b281600262000262640100000000026200275c179091906401000000009004565b8073ffffffffffffffffffffffffffffffffffffffff167f71ae26cad02663e3d92efd6ec56031a80d74a20c0ab4183faa8bf262261c9baa60405160405180910390a250565b6200021c81600362000262640100000000026200275c179091906401000000009004565b8073ffffffffffffffffffffffffffffffffffffffff167fcd118a02bd36f224f6f1b93812f78d2bbc2c2dc1bc0f60c176e3b4fe09f1483f60405160405180910390a250565b600073ffffffffffffffffffffffffffffffffffffffff168173ffffffffffffffffffffffffffffffffffffffff16141515156200029f57600080fd5b620002ba828262000325640100000000026401000000009004565b151515620002c757600080fd5b60018260000160008373ffffffffffffffffffffffffffffffffffffffff1673ffffffffffffffffffffffffffffffffffffffff16815260200190815260200160002060006101000a81548160ff0219169083151502179055505050565b60008073ffffffffffffffffffffffffffffffffffffffff168273ffffffffffffffffffffffffffffffffffffffff16141515156200036357600080fd5b8260000160008373ffffffffffffffffffffffffffffffffffffffff1673ffffffffffffffffffffffffffffffffffffffff16815260200190815260200160002060009054906101000a900460ff16905092915050565b612adf80620003ca6000396000f300608060405260043610610133576000357c0100000000000000000000000000000000000000000000000000000000900463ffffffff16806317d4a4911461013857806328fd5e831461019357806341c0e1b5146101ee57806349554d621461020557806350395ba51461036a5780635da09b88146103dd5780635f8a5afa14610438578063715018a61461047b5780638da5cb5b146104925780638ec4f505146104e95780638f32d59b1461052c57806399779ec41461055b578063ac98e6db146105b2578063ad4b9cfb146105c9578063ad973d7414610765578063bb4f288d146107a8578063c066bd1a146107f5578063d42263a11461084c578063db0e6a2f14610ab7578063de07f34e14610ace578063e7fb74c714610ae5578063f2fde38b14610b05578063f30fc48014610b48575b600080fd5b34801561014457600080fd5b50610179600480360381019080803573ffffffffffffffffffffffffffffffffffffffff169060200190929190505050610b75565b604051808215151515815260200191505060405180910390f35b34801561019f57600080fd5b506101d4600480360381019080803573ffffffffffffffffffffffffffffffffffffffff169060200190929190505050610b92565b604051808215151515815260200191505060405180910390f35b3480156101fa57600080fd5b50610203610baf565b005b34801561021157600080fd5b5061036860048036038101908080359060200190929190803573ffffffffffffffffffffffffffffffffffffffff169060200190929190803590602001908201803590602001908080601f0160208091040260200160405190810160405280939291908181526020018383808284378201915050505050509192919290803590602001908201803590602001908080601f0160208091040260200160405190810160405280939291908181526020018383808284378201915050505050509192919290803590602001908201803590602001908080601f0160208091040260200160405190810160405280939291908181526020018383808284378201915050505050509192919290803590602001908201803590602001908080601f0160208091040260200160405190810160405280939291908181526020018383808284378201915050505050509192919290505050610c42565b005b34801561037657600080fd5b506103db60048036038101908080359060200190929190803590602001908201803590602001908080601f0160208091040260200160405190810160405280939291908181526020018383808284378201915050505050509192919290505050610fe1565b005b3480156103e957600080fd5b5061041e600480360381019080803573ffffffffffffffffffffffffffffffffffffffff169060200190929190505050611197565b604051808215151515815260200191505060405180910390f35b34801561044457600080fd5b50610479600480360381019080803573ffffffffffffffffffffffffffffffffffffffff1690602001909291905050506111b4565b005b34801561048757600080fd5b506104906111c0565b005b34801561049e57600080fd5b506104a76112c0565b604051808273ffffffffffffffffffffffffffffffffffffffff1673ffffffffffffffffffffffffffffffffffffffff16815260200191505060405180910390f35b3480156104f557600080fd5b5061052a600480360381019080803573ffffffffffffffffffffffffffffffffffffffff1690602001909291905050506112e9565b005b34801561053857600080fd5b50610541611309565b604051808215151515815260200191505060405180910390f35b34801561056757600080fd5b50610570611360565b604051808273ffffffffffffffffffffffffffffffffffffffff1673ffffffffffffffffffffffffffffffffffffffff16815260200191505060405180910390f35b3480156105be57600080fd5b506105c7611368565b005b3480156105d557600080fd5b506105f460048036038101908080359060200190929190505050611373565b604051808a81526020018981526020018873ffffffffffffffffffffffffffffffffffffffff1673ffffffffffffffffffffffffffffffffffffffff1681526020018773ffffffffffffffffffffffffffffffffffffffff1673ffffffffffffffffffffffffffffffffffffffff1681526020018060200186600581111561067857fe5b60ff1681526020018581526020018473ffffffffffffffffffffffffffffffffffffffff1673ffffffffffffffffffffffffffffffffffffffff1681526020018373ffffffffffffffffffffffffffffffffffffffff1673ffffffffffffffffffffffffffffffffffffffff168152602001828103825287818151815260200191508051906020019080838360005b83811015610722578082015181840152602081019050610707565b50505050905090810190601f16801561074f5780820380516001836020036101000a031916815260200191505b509a505050505050505050505060405180910390f35b34801561077157600080fd5b506107a6600480360381019080803573ffffffffffffffffffffffffffffffffffffffff1690602001909291905050506115af565b005b3480156107b457600080fd5b506107f360048036038101908080359060200190929190803573ffffffffffffffffffffffffffffffffffffffff1690602001909291905050506115cf565b005b34801561080157600080fd5b5061084a6004803603810190808035906020019092919080359060200190929190803573ffffffffffffffffffffffffffffffffffffffff1690602001909291905050506117c1565b005b34801561085857600080fd5b5061087760048036038101908080359060200190929190505050611a24565b60405180898152602001888152602001878152602001806020018060200180602001806020018060200186810386528b818151815260200191508051906020019080838360005b838110156108d95780820151818401526020810190506108be565b50505050905090810190601f1680156109065780820380516001836020036101000a031916815260200191505b5086810385528a818151815260200191508051906020019080838360005b8381101561093f578082015181840152602081019050610924565b50505050905090810190601f16801561096c5780820380516001836020036101000a031916815260200191505b50868103845289818151815260200191508051906020019080838360005b838110156109a557808201518184015260208101905061098a565b50505050905090810190601f1680156109d25780820380516001836020036101000a031916815260200191505b50868103835288818151815260200191508051906020019080838360005b83811015610a0b5780820151818401526020810190506109f0565b50505050905090810190601f168015610a385780820380516001836020036101000a031916815260200191505b50868103825287818151815260200191508051906020019080838360005b83811015610a71578082015181840152602081019050610a56565b50505050905090810190601f168015610a9e5780820380516001836020036101000a031916815260200191505b509d505050505050505050505050505060405180910390f35b348015610ac357600080fd5b50610acc611dfe565b005b348015610ada57600080fd5b50610ae3611e09565b005b610b0360048036038101908080359060200190929190505050611e14565b005b348015610b1157600080fd5b50610b46600480360381019080803573ffffffffffffffffffffffffffffffffffffffff1690602001909291905050506121db565b005b348015610b5457600080fd5b50610b7360048036038101908080359060200190929190505050612228565b005b6000610b8b8260016123b290919063ffffffff16565b9050919050565b6000610ba88260036123b290919063ffffffff16565b9050919050565b600460009054906101000a900473ffffffffffffffffffffffffffffffffffffffff1673ffffffffffffffffffffffffffffffffffffffff163373ffffffffffffffffffffffffffffffffffffffff161415610c4057600460009054906101000a900473ffffffffffffffffffffffffffffffffffffffff1673ffffffffffffffffffffffffffffffffffffffff16ff5b565b610c4a6128bb565b610c526112c0565b73ffffffffffffffffffffffffffffffffffffffff163373ffffffffffffffffffffffffffffffffffffffff16141515610c8b57600080fd5b610c94866111b4565b610c9d866121db565b8681602001818152505060065481600001818152505086600654018161010001818152505085816040019073ffffffffffffffffffffffffffffffffffffffff16908173ffffffffffffffffffffffffffffffffffffffff168152505085816060019073ffffffffffffffffffffffffffffffffffffffff16908173ffffffffffffffffffffffffffffffffffffffff1681525050848160800181905250838160a00181905250828160c00181905250818160e0018190525060008161016001906005811115610d6957fe5b90816005811115610d7657fe5b815250508060076000898152602001908152602001600020600082015181600001556020820151816001015560408201518160020160006101000a81548173ffffffffffffffffffffffffffffffffffffffff021916908373ffffffffffffffffffffffffffffffffffffffff16021790555060608201518160030160006101000a81548173ffffffffffffffffffffffffffffffffffffffff021916908373ffffffffffffffffffffffffffffffffffffffff1602179055506080820151816004019080519060200190610e4c92919061298e565b5060a0820151816005019080519060200190610e6992919061298e565b5060c0820151816006019080519060200190610e8692919061298e565b5060e0820151816007019080519060200190610ea392919061298e565b506101008201518160080155610120820151816009019080519060200190610ecc92919061298e565b5061014082015181600a015561016082015181600b0160006101000a81548160ff02191690836005811115610efd57fe5b021790555061018082015181600b0160016101000a81548173ffffffffffffffffffffffffffffffffffffffff021916908373ffffffffffffffffffffffffffffffffffffffff1602179055506101a082015181600c0160006101000a81548173ffffffffffffffffffffffffffffffffffffffff021916908373ffffffffffffffffffffffffffffffffffffffff1602179055509050506001600654016006819055507f5afe3b1bf87069693c075da5c22a98d63d1aef98a30dbbe538d0781a98b77ee5876040518082815260200191505060405180910390a150505050505050565b610fe96112c0565b73ffffffffffffffffffffffffffffffffffffffff163373ffffffffffffffffffffffffffffffffffffffff1614151561102257600080fd5b61102b33611197565b151561103657600080fd5b816002600581111561104457fe5b60076000838152602001908152602001600020600b0160009054906101000a900460ff16600581111561107357fe5b14151561107f57600080fd5b6007600084815260200190815260200160002060020160009054906101000a900473ffffffffffffffffffffffffffffffffffffffff168073ffffffffffffffffffffffffffffffffffffffff166110d56112c0565b73ffffffffffffffffffffffffffffffffffffffff161415156110f757600080fd5b82600760008681526020019081526020016000206009019080519060200190611121929190612a0e565b50600360076000868152602001908152602001600020600b0160006101000a81548160ff0219169083600581111561115557fe5b02179055507fa8142743f8f70a4c26f3691cf4ed59718381fb2f18070ec52be1f1022d855557846040518082815260200191505060405180910390a150505050565b60006111ad8260026123b290919063ffffffff16565b9050919050565b6111bd81612446565b50565b6111c86112c0565b73ffffffffffffffffffffffffffffffffffffffff163373ffffffffffffffffffffffffffffffffffffffff1614151561120157600080fd5b600073ffffffffffffffffffffffffffffffffffffffff166000809054906101000a900473ffffffffffffffffffffffffffffffffffffffff1673ffffffffffffffffffffffffffffffffffffffff167f5c486528ec3e3f0ea91181cff8116f02bfa350e03b8b6f12e00765adbb5af85c60405160405180910390a360008060006101000a81548173ffffffffffffffffffffffffffffffffffffffff021916908373ffffffffffffffffffffffffffffffffffffffff160217905550565b60008060009054906101000a900473ffffffffffffffffffffffffffffffffffffffff16905090565b6112f233611197565b15156112fd57600080fd5b611306816124a0565b50565b60008060009054906101000a900473ffffffffffffffffffffffffffffffffffffffff1673ffffffffffffffffffffffffffffffffffffffff163373ffffffffffffffffffffffffffffffffffffffff1614905090565b600033905090565b611371336124fa565b565b6000806000806060600080600080600760008b8152602001908152602001600020600001549850600760008b8152602001908152602001600020600101549750600760008b815260200190815260200160002060020160009054906101000a900473ffffffffffffffffffffffffffffffffffffffff169650600760008b815260200190815260200160002060030160009054906101000a900473ffffffffffffffffffffffffffffffffffffffff169550600760008b81526020019081526020016000206004018054600181600116156101000203166002900480601f0160208091040260200160405190810160405280929190818152602001828054600181600116156101000203166002900480156114cf5780601f106114a4576101008083540402835291602001916114cf565b820191906000526020600020905b8154815290600101906020018083116114b257829003601f168201915b50505050509450600760008b8152602001908152602001600020600b0160009054906101000a900460ff169350600760008b8152602001908152602001600020600a01549250600760008b8152602001908152602001600020600b0160019054906101000a900473ffffffffffffffffffffffffffffffffffffffff169150600760008b8152602001908152602001600020600c0160009054906101000a900473ffffffffffffffffffffffffffffffffffffffff1690508888888888888888889850985098509850985098509850985098509193959799909294969850565b6115b833610b92565b15156115c357600080fd5b6115cc81612554565b50565b6115d76112c0565b73ffffffffffffffffffffffffffffffffffffffff163373ffffffffffffffffffffffffffffffffffffffff1614151561161057600080fd5b61161933611197565b151561162457600080fd5b816003600581111561163257fe5b60076000838152602001908152602001600020600b0160009054906101000a900460ff16600581111561166157fe5b14151561166d57600080fd5b6007600084815260200190815260200160002060020160009054906101000a900473ffffffffffffffffffffffffffffffffffffffff168073ffffffffffffffffffffffffffffffffffffffff166116c36112c0565b73ffffffffffffffffffffffffffffffffffffffff161415156116e557600080fd5b6116ee836115af565b6116f7836121db565b8260076000868152602001908152602001600020600c0160006101000a81548173ffffffffffffffffffffffffffffffffffffffff021916908373ffffffffffffffffffffffffffffffffffffffff160217905550600460076000868152602001908152602001600020600b0160006101000a81548160ff0219169083600581111561177f57fe5b02179055507ff00b9a5725b80c54016f42114f6ed7792d22eecb116011c4afac29c57bef6c95846040518082815260200191505060405180910390a150505050565b82600160058111156117cf57fe5b60076000838152602001908152602001600020600b0160009054906101000a900460ff1660058111156117fe57fe5b14151561180a57600080fd5b6118126112c0565b73ffffffffffffffffffffffffffffffffffffffff163373ffffffffffffffffffffffffffffffffffffffff1614151561184b57600080fd5b61185433610b75565b151561185f57600080fd5b6007600085815260200190815260200160002060020160009054906101000a900473ffffffffffffffffffffffffffffffffffffffff168073ffffffffffffffffffffffffffffffffffffffff166118b56112c0565b73ffffffffffffffffffffffffffffffffffffffff161415156118d757600080fd5b6118e0836112e9565b6118e9836121db565b826007600087815260200190815260200160002060020160006101000a81548173ffffffffffffffffffffffffffffffffffffffff021916908373ffffffffffffffffffffffffffffffffffffffff1602179055508260076000878152602001908152602001600020600b0160016101000a81548173ffffffffffffffffffffffffffffffffffffffff021916908373ffffffffffffffffffffffffffffffffffffffff160217905550600260076000878152602001908152602001600020600b0160006101000a81548160ff021916908360058111156119c657fe5b02179055508360076000878152602001908152602001600020600a01819055507f64a55044d1f2eddebe1b90e8e2853e8e96931cefadbfa0b2ceb34bee36061941856040518082815260200191505060405180910390a15050505050565b60008060006060806060806060600760008a8152602001908152602001600020600801549750889650600760008a8152602001908152602001600020600a01549550600760008a81526020019081526020016000206009018054600181600116156101000203166002900480601f016020809104026020016040519081016040528092919081815260200182805460018160011615610100020316600290048015611b105780601f10611ae557610100808354040283529160200191611b10565b820191906000526020600020905b815481529060010190602001808311611af357829003601f168201915b50505050509450600760008a81526020019081526020016000206004018054600181600116156101000203166002900480601f016020809104026020016040519081016040528092919081815260200182805460018160011615610100020316600290048015611bc15780601f10611b9657610100808354040283529160200191611bc1565b820191906000526020600020905b815481529060010190602001808311611ba457829003601f168201915b50505050509350600760008a81526020019081526020016000206005018054600181600116156101000203166002900480601f016020809104026020016040519081016040528092919081815260200182805460018160011615610100020316600290048015611c725780601f10611c4757610100808354040283529160200191611c72565b820191906000526020600020905b815481529060010190602001808311611c5557829003601f168201915b50505050509250600760008a81526020019081526020016000206006018054600181600116156101000203166002900480601f016020809104026020016040519081016040528092919081815260200182805460018160011615610100020316600290048015611d235780601f10611cf857610100808354040283529160200191611d23565b820191906000526020600020905b815481529060010190602001808311611d0657829003601f168201915b50505050509150600760008a81526020019081526020016000206007018054600181600116156101000203166002900480601f016020809104026020016040519081016040528092919081815260200182805460018160011615610100020316600290048015611dd45780601f10611da957610100808354040283529160200191611dd4565b820191906000526020600020905b815481529060010190602001808311611db757829003601f168201915b50505050509050878787878787878797509750975097509750975097509750919395975091939597565b611e07336125ae565b565b611e1233612608565b565b611e1c6112c0565b73ffffffffffffffffffffffffffffffffffffffff163373ffffffffffffffffffffffffffffffffffffffff16141515611e5557600080fd5b611e5e33610b92565b1515611e6957600080fd5b8060046005811115611e7757fe5b60076000838152602001908152602001600020600b0160009054906101000a900460ff166005811115611ea657fe5b141515611eb257600080fd5b60076000838152602001908152602001600020600a0154803410151515611ed857600080fd5b82600080336007600088815260200190815260200160002060020160006101000a81548173ffffffffffffffffffffffffffffffffffffffff021916908373ffffffffffffffffffffffffffffffffffffffff1602179055503360076000888152602001908152602001600020600c0160006101000a81548173ffffffffffffffffffffffffffffffffffffffff021916908373ffffffffffffffffffffffffffffffffffffffff160217905550600560076000888152602001908152602001600020600b0160006101000a81548160ff02191690836005811115611fb957fe5b02179055506007600087815260200190815260200160002060030160009054906101000a900473ffffffffffffffffffffffffffffffffffffffff1673ffffffffffffffffffffffffffffffffffffffff166108fc600a60078060008b8152602001908152602001600020600a01540281151561203257fe5b049081150290604051600060405180830381858888f1935050505015801561205e573d6000803e3d6000fd5b5060076000878152602001908152602001600020600b0160019054906101000a900473ffffffffffffffffffffffffffffffffffffffff1673ffffffffffffffffffffffffffffffffffffffff166108fc600a6003600760008b8152602001908152602001600020600a0154028115156120d457fe5b049081150290604051600060405180830381858888f19350505050158015612100573d6000803e3d6000fd5b507ffcc296b8bdd64e3f1d1faadef50cb2d6550f645316330fe57cb1dd7e0612ead0866040518082815260200191505060405180910390a160076000848152602001908152602001600020600a01549150813403905060076000848152602001908152602001600020600c0160009054906101000a900473ffffffffffffffffffffffffffffffffffffffff1673ffffffffffffffffffffffffffffffffffffffff166108fc829081150290604051600060405180830381858888f193505050501580156121d2573d6000803e3d6000fd5b50505050505050565b6121e36112c0565b73ffffffffffffffffffffffffffffffffffffffff163373ffffffffffffffffffffffffffffffffffffffff1614151561221c57600080fd5b61222581612662565b50565b6122306112c0565b73ffffffffffffffffffffffffffffffffffffffff163373ffffffffffffffffffffffffffffffffffffffff1614151561226957600080fd5b61227233610b75565b151561227d57600080fd5b6007600082815260200190815260200160002060020160009054906101000a900473ffffffffffffffffffffffffffffffffffffffff168073ffffffffffffffffffffffffffffffffffffffff166122d36112c0565b73ffffffffffffffffffffffffffffffffffffffff161415156122f557600080fd5b816000600581111561230357fe5b60076000838152602001908152602001600020600b0160009054906101000a900460ff16600581111561233257fe5b14151561233e57600080fd5b600160076000858152602001908152602001600020600b0160006101000a81548160ff0219169083600581111561237157fe5b02179055507f9b3b66e2380b690bae22c73ef1428fb0c91e72fe14a4b6defa13035214187aff836040518082815260200191505060405180910390a1505050565b60008073ffffffffffffffffffffffffffffffffffffffff168273ffffffffffffffffffffffffffffffffffffffff16141515156123ef57600080fd5b8260000160008373ffffffffffffffffffffffffffffffffffffffff1673ffffffffffffffffffffffffffffffffffffffff16815260200190815260200160002060009054906101000a900460ff16905092915050565b61245a81600161275c90919063ffffffff16565b8073ffffffffffffffffffffffffffffffffffffffff167f561138658ca49a8540dc70dcfe64c9026c1c5b9344642242dd6562970f9c127860405160405180910390a250565b6124b481600261275c90919063ffffffff16565b8073ffffffffffffffffffffffffffffffffffffffff167f71ae26cad02663e3d92efd6ec56031a80d74a20c0ab4183faa8bf262261c9baa60405160405180910390a250565b61250e81600361280c90919063ffffffff16565b8073ffffffffffffffffffffffffffffffffffffffff167fb4c88a9c5cd906354abdd1cc29e4f94c6c4de90754fb80ce51e6a33417bc81b660405160405180910390a250565b61256881600361275c90919063ffffffff16565b8073ffffffffffffffffffffffffffffffffffffffff167fcd118a02bd36f224f6f1b93812f78d2bbc2c2dc1bc0f60c176e3b4fe09f1483f60405160405180910390a250565b6125c281600261280c90919063ffffffff16565b8073ffffffffffffffffffffffffffffffffffffffff167fdb7176e79cffef81cb01767dd0447a0b24bb72ca9778d4b245581086b2a7e6db60405160405180910390a250565b61261c81600161280c90919063ffffffff16565b8073ffffffffffffffffffffffffffffffffffffffff167f2fed5abf6a80d6dfe30b4895481b2fc5d7dce5f8f7b931832f4a2947d5040c7f60405160405180910390a250565b600073ffffffffffffffffffffffffffffffffffffffff168173ffffffffffffffffffffffffffffffffffffffff161415151561269e57600080fd5b8073ffffffffffffffffffffffffffffffffffffffff166000809054906101000a900473ffffffffffffffffffffffffffffffffffffffff1673ffffffffffffffffffffffffffffffffffffffff167f5c486528ec3e3f0ea91181cff8116f02bfa350e03b8b6f12e00765adbb5af85c60405160405180910390a3806000806101000a81548173ffffffffffffffffffffffffffffffffffffffff021916908373ffffffffffffffffffffffffffffffffffffffff16021790555050565b600073ffffffffffffffffffffffffffffffffffffffff168173ffffffffffffffffffffffffffffffffffffffff161415151561279857600080fd5b6127a282826123b2565b1515156127ae57600080fd5b60018260000160008373ffffffffffffffffffffffffffffffffffffffff1673ffffffffffffffffffffffffffffffffffffffff16815260200190815260200160002060006101000a81548160ff0219169083151502179055505050565b600073ffffffffffffffffffffffffffffffffffffffff168173ffffffffffffffffffffffffffffffffffffffff161415151561284857600080fd5b61285282826123b2565b151561285d57600080fd5b60008260000160008373ffffffffffffffffffffffffffffffffffffffff1673ffffffffffffffffffffffffffffffffffffffff16815260200190815260200160002060006101000a81548160ff0219169083151502179055505050565b6101c0604051908101604052806000815260200160008152602001600073ffffffffffffffffffffffffffffffffffffffff168152602001600073ffffffffffffffffffffffffffffffffffffffff168152602001606081526020016060815260200160608152602001606081526020016000815260200160608152602001600081526020016000600581111561294e57fe5b8152602001600073ffffffffffffffffffffffffffffffffffffffff168152602001600073ffffffffffffffffffffffffffffffffffffffff1681525090565b828054600181600116156101000203166002900490600052602060002090601f016020900481019282601f106129cf57805160ff19168380011785556129fd565b828001600101855582156129fd579182015b828111156129fc5782518255916020019190600101906129e1565b5b509050612a0a9190612a8e565b5090565b828054600181600116156101000203166002900490600052602060002090601f016020900481019282601f10612a4f57805160ff1916838001178555612a7d565b82800160010185558215612a7d579182015b82811115612a7c578251825591602001919060010190612a61565b5b509050612a8a9190612a8e565b5090565b612ab091905b80821115612aac576000816000905550600101612a94565b5090565b905600a165627a7a7230582025718e55f1c0ea9f589e4b890a35dccf71941463311e1ecb7903dd8f3af468fb0029",
  "source": "pragma solidity ^0.4.24;\n// Define a contract 'Supplychain'\n\nimport \"../core/Ownable.sol\";\nimport \"../accessControl/ManufacturerRole.sol\";\nimport \"../accessControl/RetailerRole.sol\";\nimport \"../accessControl/CustomerRole.sol\";\n\ncontract SupplyChain is Ownable, ManufacturerRole, RetailerRole, CustomerRole {\n\n  // Define 'owner'\n  address chainOwner;\n\n  // Define a variable called 'upc' for Universal Product Code (UPC)\n  uint  upc;\n\n  // Define a variable called 'sku' for Stock Keeping Unit (SKU)\n  uint  sku;\n\n  // Define a public mapping 'items' that maps the UPC to an Item.\n  mapping (uint => Item) items;\n\n  // Define a public mapping 'itemsHistory' that maps the UPC to an array of TxHash, \n  // that track its journey through the supply chain -- to be sent from DApp.\n  mapping (uint => string[]) itemsHistory;\n  \n  // Define enum 'State' with the following values:\n  enum State \n  { \n    Processed,  // 0\n    Packed,  // 1\n    Added,     // 2\n    Received,    // 3\n    Shipped,       // 4\n    Delivered   // 5\n    \n    }\n\n  State constant defaultState = State.Processed;\n\n  // Define a struct 'Item' with the following fields:\n   struct Item {\n        uint sku;  // Stock Keeping Unit (SKU)\n        uint upc; // Universal Product Code (UPC), generated by the Manufacturer, goes on the package, can be verified by the Customer\n        address ownerID;  // Metamask-Ethereum address of the current owner as the product moves through 6 stages\n        address originManufacturerID; // Metamask-Ethereum address of the Manufacturer\n        string originManufacturerName; // Manufacturer Name\n        string originManufacturerInformation;  // Manufacturer Information\n        string originManufacturerLatitude; // Manufacturer Latitude\n        string originManufacturerLongitude;  // Manufacturer Longitude\n        uint productID;  // Product ID potentially a combination of upc + sku\n        string productNotes; // Product Notes\n        uint productPrice; // Product Price\n        State itemState;  // Product State as represented in the enum above\n        address retailerID; // Metamask-Ethereum address of the Retailer\n        address customerID; // Metamask-Ethereum address of the Customer\n    }\n\n  // Define 8 events with the same 8 state values and accept 'upc' as input argument\n  event Processed(uint upc);\n  event Packed(uint upc);\n  event Added(uint upc);\n  event Received(uint upc);\n  event Shipped(uint upc);\n  event Delivered(uint upc);\n\n  // Define a modifer that checks to see if msg.sender == owner of the contract\n  modifier onlyOwner() {\n    require(msg.sender == owner());\n    _;\n  }\n\n  // Define a modifer that verifies the Caller\n  modifier verifyCaller (address _address) {\n    require(owner() == _address); \n    _;\n  }\n\n  // Define a modifier that checks if the paid amount is sufficient to cover the price\n  modifier paidEnough(uint _price) { \n    require(msg.value >= _price); \n    _;\n  }\n  \n  // Define a modifier that checks the price and refunds the remaining balance\n  modifier checkValue(uint _upc) {\n    _;\n    uint _price = items[_upc].productPrice;\n    uint amountToReturn = msg.value - _price;\n    items[_upc].customerID.transfer(amountToReturn);\n  }\n\n  // Define a modifier that checks if an item.state of a upc is Harvested\n  modifier processed(uint _upc) {\n    require(items[_upc].itemState == State.Processed);\n    _;\n  }\n\n  // Define a modifier that checks if an item.state of a upc is Processed\n  modifier packed(uint _upc) {\n    require(items[_upc].itemState == State.Packed);\n    _;\n  }\n  \n  // Define a modifier that checks if an item.state of a upc is Packed\n  modifier added(uint _upc) {\n      require(items[_upc].itemState == State.Added);\n      _;\n  }\n\n\n  // Define a modifier that checks if an item.state of a upc is ForSale\n  modifier received(uint _upc) {\n        require(items[_upc].itemState == State.Received);\n        _;\n    }\n\n\n  // Define a modifier that checks if an item.state of a upc is Sold\n  modifier shipped(uint _upc) {\n        require(items[_upc].itemState == State.Shipped);\n        _;\n    }\n  \n  // Define a modifier that checks if an item.state of a upc is Shipped\n  modifier delivered(uint _upc) {\n        require(items[_upc].itemState == State.Delivered);\n        _;\n    }\n\n\n \n  // In the constructor set 'owner' to the address that instantiated the contract\n  // and set 'sku' to 1\n  // and set 'upc' to 1\n  constructor() public payable {\n    // owner = msg.sender;\n    sku = 1;\n    upc = 1;\n  }\n\n  // Define a function 'kill' if required\n  function kill() public {\n    if (msg.sender == chainOwner) {\n      selfdestruct(chainOwner);\n    }\n  }\n\n  // Define a function 'harvestItem' that allows a farmer to mark an item 'Harvested'\nfunction processItem(uint _upc, address _originManufacturerID, string _originManufacturerName, string _originManufacturerInformation, string _originManufacturerLatitude, string _originManufacturerLongitude) public\n    onlyOwner()  {\n      \n      addManufacturer(_originManufacturerID);\n      transferOwnership(_originManufacturerID);\n\n    // Add the new item as part of Processed\n     Item memory newItem;\n        newItem.upc = _upc;\n        newItem.sku = sku;\n        newItem.productID = sku + _upc;\n        newItem.ownerID = _originManufacturerID;\n        newItem.originManufacturerID = _originManufacturerID;\n        newItem.originManufacturerName = _originManufacturerName;\n        newItem.originManufacturerInformation = _originManufacturerInformation;\n        newItem.originManufacturerLatitude = _originManufacturerLatitude;\n        newItem.originManufacturerLongitude = _originManufacturerLongitude;\n        newItem.itemState = defaultState;\n\n    items[_upc] = newItem;\n    // Increment sku\n    sku = sku + 1;\n    // Emit the appropriate event\n      emit Processed(_upc);\n\n  }\n\n  // Define a function 'processtItem' that allows a farmer to mark an item 'Processed'\n  function packItem(uint _upc) public \n  // Call modifier to verify caller of this function\n  onlyOwner()\n  onlyManufacturer()\n  verifyCaller(items[_upc].ownerID)\n  // Call modifier to check if upc has passed previous supply chain stage\n  processed(_upc)\n  {\n    // Update the appropriate fields\n      items[_upc].itemState = State.Packed;\n    // Emit the appropriate event\n      emit Packed(_upc);\n  }\n\n  // Define a function 'packItem' that allows a farmer to mark an item 'Packed'\n  function addItem(uint _upc, uint _price, address retailerID) public \n  // Call modifier to check if upc has passed previous supply chain stage\n  packed(_upc)\n  // Call modifier to verify caller of this function\n  onlyOwner()\n  onlyManufacturer()\n  verifyCaller(items[_upc].ownerID)\n  {\n     addRetailer(retailerID);\n     transferOwnership(retailerID);\n    // Update the appropriate fields\n        items[_upc].ownerID = retailerID;\n        items[_upc].retailerID = retailerID;\n        items[_upc].itemState = State.Added;\n        items[_upc].productPrice = _price;\n    // Emit the appropriate event\n        emit Added(_upc);  \n  }\n\n  // Define a function 'sellItem' that allows a farmer to mark an item 'ForSale'\n   function receiveItem(uint _upc, string productNotes) public\n    onlyOwner()\n    onlyRetailer()\n        // Call modifier to check if upc has passed previous supply chain stage\n    added(_upc)\n\n        // Access Control List enforced by calling Smart Contract / DApp\n    verifyCaller(items[_upc].ownerID)\n    {\n\n        // Update the appropriate fields\n        items[_upc].productNotes = productNotes;\n        items[_upc].itemState = State.Received;\n\n        // Emit the appropriate event\n        emit Received(_upc);\n    }\n\n    // Define a function 'shipItem' that allows the retailer to mark an item 'Shipped'\n    // Use the above modifers to check if the item is sold\n    function shipItem(uint _upc, address customerID) public\n    onlyOwner()\n    onlyRetailer()\n        // Call modifier to check if upc has passed previous supply chain stage\n    received(_upc)\n        // Call modifier to verify caller of this function\n    verifyCaller(items[_upc].ownerID)\n    {\n        addCustomer(customerID);\n        transferOwnership(customerID);\n        // Update the appropriate fields\n        items[_upc].customerID = customerID;\n        items[_upc].itemState = State.Shipped;\n\n        // Emit the appropriate event\n        emit Shipped(_upc);\n    }\n\n\n  // Define a function 'buyItem' that allows the disributor to mark an item 'Sold'\n  // Use the above defined modifiers to check if the item is available for sale, if the buyer has paid enough, \n  // and any excess ether sent is refunded back to the buyer\n  function buyItem(uint _upc) public payable \n    onlyOwner()\n    onlyCustomer()\n    // Call modifier to check if upc has passed previous supply chain stage\n    shipped(_upc)\n    // Call modifer to check if buyer has paid enough\n    paidEnough(items[_upc].productPrice)\n    // Call modifer to send any excess ether back to buyer\n    checkValue(_upc)\n    {\n    \n    // Update the appropriate fields - ownerID, distributorID, itemState\n    items[_upc].ownerID= msg.sender;\n    items[_upc].customerID=msg.sender;\n    items[_upc].itemState=State.Delivered;\n    // Transfer money to manufacturer and retailer in 70/30 ratio\n      items[_upc].originManufacturerID.transfer((items[_upc].productPrice * 7) / 10);\n        items[_upc].retailerID.transfer((items[_upc].productPrice * 3) / 10);\n    // emit the appropriate event\n    emit Delivered(_upc);\n  }\n\n\n  // Define a function 'fetchItem' that fetches the data\n  function fetchItem(uint _upc) public view returns \n  (\n  uint    itemSKU,\n  uint    itemUPC,\n  address ownerID,\n  address originManufacturerID,\n  string originManufacturerName,\n  State itemState,\n  uint productPrice,\n  address retailerID,\n  address customerID\n  ) \n  {\n  // Assign values to the 8 parameters\n    itemSKU = items[_upc].sku;\n    itemUPC = items[_upc].upc;\n    ownerID = items[_upc].ownerID;\n    originManufacturerID = items[_upc].originManufacturerID;\n    originManufacturerName = items[_upc].originManufacturerName;\n    itemState = items[_upc].itemState;\n    productPrice = items[_upc].productPrice;\n    retailerID = items[_upc].retailerID;\n    customerID = items[_upc].customerID;\n    \n  return \n  (\n  itemSKU,\n  itemUPC,\n  ownerID,\n  originManufacturerID,\n  originManufacturerName,\n  itemState,\n  productPrice,\n  retailerID,\n  customerID\n  );\n  }\n\n  // Define a function 'fetchItemBufferTwo' that fetches the data\n  function fetchItemData(uint _upc) public view returns \n  (\n  uint productID,\n  uint itemUPC,\n  uint productPrice,\n  string productNotes,\n  string originManufacturerName,\n  string originManufacturerInformation,\n  string originManufacturerLatitude,\n  string originManufacturerLongitude\n  ) \n    {\n    // Assign values to the 9 parameters\n  productID=items[_upc].productID;\n  itemUPC=_upc;\n  productPrice=items[_upc].productPrice;\n  productNotes = items[_upc].productNotes;\n  originManufacturerName = items[_upc].originManufacturerName;\n  originManufacturerInformation = items[_upc].originManufacturerInformation;\n  originManufacturerLatitude = items[_upc].originManufacturerLatitude;\n  originManufacturerLongitude = items[_upc].originManufacturerLongitude;\n\n  return \n  (\n        productID,\n        itemUPC,\n        productPrice,\n        productNotes,\n        originManufacturerName,\n        originManufacturerInformation,\n        originManufacturerLatitude,\n        originManufacturerLongitude\n        );\n  }\n}\n",
  "sourcePath": "/Users/bhavyesharma/Desktop/UDACITYND/Project_6B/nd1309-Project-6b-Example-Template/project-6/contracts/base/SupplyChain.sol",
  "compiler": {
    "name": "solc",
    "version": "0.4.24+commit.e67f0147.Emscripten.clang"
  },
  "schemaVersion": "2.0.1",
  "updatedAt": "2019-04-03T14:54:32.952Z"
}