{
  "contractName": "SolnSquareVerifier",
  "abi": [
    {
      "constant": true,
      "inputs": [
        {
          "name": "interfaceId",
          "type": "bytes4"
        }
      ],
      "name": "supportsInterface",
      "outputs": [
        {
          "name": "",
          "type": "bool"
        }
      ],
      "payable": false,
      "stateMutability": "view",
      "type": "function"
    },
    {
      "constant": true,
      "inputs": [],
      "name": "name",
      "outputs": [
        {
          "name": "",
          "type": "string"
        }
      ],
      "payable": false,
      "stateMutability": "view",
      "type": "function"
    },
    {
      "constant": true,
      "inputs": [
        {
          "name": "tokenId",
          "type": "uint256"
        }
      ],
      "name": "getApproved",
      "outputs": [
        {
          "name": "",
          "type": "address"
        }
      ],
      "payable": false,
      "stateMutability": "view",
      "type": "function"
    },
    {
      "constant": false,
      "inputs": [
        {
          "name": "to",
          "type": "address"
        },
        {
          "name": "tokenId",
          "type": "uint256"
        }
      ],
      "name": "approve",
      "outputs": [],
      "payable": false,
      "stateMutability": "nonpayable",
      "type": "function"
    },
    {
      "constant": true,
      "inputs": [],
      "name": "totalSupply",
      "outputs": [
        {
          "name": "",
          "type": "uint256"
        }
      ],
      "payable": false,
      "stateMutability": "view",
      "type": "function"
    },
    {
      "constant": false,
      "inputs": [
        {
          "name": "from",
          "type": "address"
        },
        {
          "name": "to",
          "type": "address"
        },
        {
          "name": "tokenId",
          "type": "uint256"
        }
      ],
      "name": "transferFrom",
      "outputs": [],
      "payable": false,
      "stateMutability": "nonpayable",
      "type": "function"
    },
    {
      "constant": false,
      "inputs": [
        {
          "name": "_myid",
          "type": "bytes32"
        },
        {
          "name": "_result",
          "type": "string"
        }
      ],
      "name": "__callback",
      "outputs": [],
      "payable": false,
      "stateMutability": "nonpayable",
      "type": "function"
    },
    {
      "constant": true,
      "inputs": [
        {
          "name": "owner",
          "type": "address"
        },
        {
          "name": "index",
          "type": "uint256"
        }
      ],
      "name": "tokenOfOwnerByIndex",
      "outputs": [
        {
          "name": "",
          "type": "uint256"
        }
      ],
      "payable": false,
      "stateMutability": "view",
      "type": "function"
    },
    {
      "constant": false,
      "inputs": [
        {
          "name": "_myid",
          "type": "bytes32"
        },
        {
          "name": "_result",
          "type": "string"
        },
        {
          "name": "_proof",
          "type": "bytes"
        }
      ],
      "name": "__callback",
      "outputs": [],
      "payable": false,
      "stateMutability": "nonpayable",
      "type": "function"
    },
    {
      "constant": false,
      "inputs": [
        {
          "name": "to",
          "type": "address"
        },
        {
          "name": "tokenId",
          "type": "uint256"
        }
      ],
      "name": "mint",
      "outputs": [
        {
          "name": "",
          "type": "bool"
        }
      ],
      "payable": false,
      "stateMutability": "nonpayable",
      "type": "function"
    },
    {
      "constant": false,
      "inputs": [
        {
          "name": "from",
          "type": "address"
        },
        {
          "name": "to",
          "type": "address"
        },
        {
          "name": "tokenId",
          "type": "uint256"
        }
      ],
      "name": "safeTransferFrom",
      "outputs": [],
      "payable": false,
      "stateMutability": "nonpayable",
      "type": "function"
    },
    {
      "constant": true,
      "inputs": [
        {
          "name": "index",
          "type": "uint256"
        }
      ],
      "name": "tokenByIndex",
      "outputs": [
        {
          "name": "",
          "type": "uint256"
        }
      ],
      "payable": false,
      "stateMutability": "view",
      "type": "function"
    },
    {
      "constant": false,
      "inputs": [
        {
          "name": "status",
          "type": "bool"
        }
      ],
      "name": "setStatus",
      "outputs": [],
      "payable": false,
      "stateMutability": "nonpayable",
      "type": "function"
    },
    {
      "constant": true,
      "inputs": [
        {
          "name": "tokenId",
          "type": "uint256"
        }
      ],
      "name": "ownerOf",
      "outputs": [
        {
          "name": "",
          "type": "address"
        }
      ],
      "payable": false,
      "stateMutability": "view",
      "type": "function"
    },
    {
      "constant": true,
      "inputs": [
        {
          "name": "owner",
          "type": "address"
        }
      ],
      "name": "balanceOf",
      "outputs": [
        {
          "name": "",
          "type": "uint256"
        }
      ],
      "payable": false,
      "stateMutability": "view",
      "type": "function"
    },
    {
      "constant": true,
      "inputs": [],
      "name": "getOwner",
      "outputs": [
        {
          "name": "",
          "type": "address"
        }
      ],
      "payable": false,
      "stateMutability": "view",
      "type": "function"
    },
    {
      "constant": true,
      "inputs": [],
      "name": "symbol",
      "outputs": [
        {
          "name": "",
          "type": "string"
        }
      ],
      "payable": false,
      "stateMutability": "view",
      "type": "function"
    },
    {
      "constant": false,
      "inputs": [
        {
          "name": "to",
          "type": "address"
        },
        {
          "name": "approved",
          "type": "bool"
        }
      ],
      "name": "setApprovalForAll",
      "outputs": [],
      "payable": false,
      "stateMutability": "nonpayable",
      "type": "function"
    },
    {
      "constant": false,
      "inputs": [
        {
          "name": "from",
          "type": "address"
        },
        {
          "name": "to",
          "type": "address"
        },
        {
          "name": "tokenId",
          "type": "uint256"
        },
        {
          "name": "_data",
          "type": "bytes"
        }
      ],
      "name": "safeTransferFrom",
      "outputs": [],
      "payable": false,
      "stateMutability": "nonpayable",
      "type": "function"
    },
    {
      "constant": true,
      "inputs": [
        {
          "name": "tokenId",
          "type": "uint256"
        }
      ],
      "name": "tokenURI",
      "outputs": [
        {
          "name": "",
          "type": "string"
        }
      ],
      "payable": false,
      "stateMutability": "view",
      "type": "function"
    },
    {
      "constant": true,
      "inputs": [],
      "name": "baseTokenURI",
      "outputs": [
        {
          "name": "",
          "type": "string"
        }
      ],
      "payable": false,
      "stateMutability": "view",
      "type": "function"
    },
    {
      "constant": true,
      "inputs": [
        {
          "name": "owner",
          "type": "address"
        },
        {
          "name": "operator",
          "type": "address"
        }
      ],
      "name": "isApprovedForAll",
      "outputs": [
        {
          "name": "",
          "type": "bool"
        }
      ],
      "payable": false,
      "stateMutability": "view",
      "type": "function"
    },
    {
      "constant": false,
      "inputs": [
        {
          "name": "newOwner",
          "type": "address"
        }
      ],
      "name": "transferOwnership",
      "outputs": [],
      "payable": false,
      "stateMutability": "nonpayable",
      "type": "function"
    },
    {
      "inputs": [
        {
          "name": "_verifierContract",
          "type": "address"
        }
      ],
      "payable": false,
      "stateMutability": "nonpayable",
      "type": "constructor"
    },
    {
      "anonymous": false,
      "inputs": [
        {
          "indexed": false,
          "name": "solverAddress",
          "type": "address"
        }
      ],
      "name": "solutionAdded",
      "type": "event"
    },
    {
      "anonymous": false,
      "inputs": [
        {
          "indexed": true,
          "name": "from",
          "type": "address"
        },
        {
          "indexed": true,
          "name": "to",
          "type": "address"
        },
        {
          "indexed": true,
          "name": "tokenId",
          "type": "uint256"
        }
      ],
      "name": "Transfer",
      "type": "event"
    },
    {
      "anonymous": false,
      "inputs": [
        {
          "indexed": true,
          "name": "owner",
          "type": "address"
        },
        {
          "indexed": true,
          "name": "approved",
          "type": "address"
        },
        {
          "indexed": true,
          "name": "tokenId",
          "type": "uint256"
        }
      ],
      "name": "Approval",
      "type": "event"
    },
    {
      "anonymous": false,
      "inputs": [
        {
          "indexed": true,
          "name": "owner",
          "type": "address"
        },
        {
          "indexed": true,
          "name": "operator",
          "type": "address"
        },
        {
          "indexed": false,
          "name": "approved",
          "type": "bool"
        }
      ],
      "name": "ApprovalForAll",
      "type": "event"
    },
    {
      "anonymous": false,
      "inputs": [
        {
          "indexed": false,
          "name": "account",
          "type": "address"
        }
      ],
      "name": "Paused",
      "type": "event"
    },
    {
      "anonymous": false,
      "inputs": [
        {
          "indexed": false,
          "name": "account",
          "type": "address"
        }
      ],
      "name": "Unpaused",
      "type": "event"
    },
    {
      "anonymous": false,
      "inputs": [
        {
          "indexed": false,
          "name": "owner",
          "type": "address"
        }
      ],
      "name": "ownershipTransferred",
      "type": "event"
    },
    {
      "constant": false,
      "inputs": [
        {
          "name": "_solverAddress",
          "type": "address"
        },
        {
          "name": "_id",
          "type": "uint256"
        },
        {
          "name": "A",
          "type": "uint256[2]"
        },
        {
          "name": "A_p",
          "type": "uint256[2]"
        },
        {
          "name": "B",
          "type": "uint256[2][2]"
        },
        {
          "name": "B_p",
          "type": "uint256[2]"
        },
        {
          "name": "C",
          "type": "uint256[2]"
        },
        {
          "name": "C_p",
          "type": "uint256[2]"
        },
        {
          "name": "H",
          "type": "uint256[2]"
        },
        {
          "name": "K",
          "type": "uint256[2]"
        },
        {
          "name": "input",
          "type": "uint256[2]"
        }
      ],
      "name": "addSolution",
      "outputs": [],
      "payable": false,
      "stateMutability": "nonpayable",
      "type": "function"
    },
    {
      "constant": true,
      "inputs": [
        {
          "name": "key",
          "type": "bytes32"
        }
      ],
      "name": "isSolutionUnique",
      "outputs": [
        {
          "name": "",
          "type": "bool"
        }
      ],
      "payable": false,
      "stateMutability": "view",
      "type": "function"
    },
    {
      "constant": false,
      "inputs": [
        {
          "name": "_to",
          "type": "address"
        },
        {
          "name": "_tokenId",
          "type": "uint256"
        },
        {
          "name": "A",
          "type": "uint256[2]"
        },
        {
          "name": "A_p",
          "type": "uint256[2]"
        },
        {
          "name": "B",
          "type": "uint256[2][2]"
        },
        {
          "name": "B_p",
          "type": "uint256[2]"
        },
        {
          "name": "C",
          "type": "uint256[2]"
        },
        {
          "name": "C_p",
          "type": "uint256[2]"
        },
        {
          "name": "H",
          "type": "uint256[2]"
        },
        {
          "name": "K",
          "type": "uint256[2]"
        },
        {
          "name": "input",
          "type": "uint256[2]"
        }
      ],
      "name": "mintNewNFT",
      "outputs": [],
      "payable": false,
      "stateMutability": "nonpayable",
      "type": "function"
    }
  ],
  "bytecode": "0x60806040523480156200001157600080fd5b50604051602080620041e7833981018060405260208110156200003357600080fd5b81019080805190602001909291905050506040805190810160405280600c81526020017f47686172436f6e747261637400000000000000000000000000000000000000008152506040805190810160405280600381526020017f4748430000000000000000000000000000000000000000000000000000000000815250606060405190810160405280603f8152602001620041a8603f9139336000806101000a81548173ffffffffffffffffffffffffffffffffffffffff021916908373ffffffffffffffffffffffffffffffffffffffff1602179055507fac9a252a3ed2d3fcc198677953ffe98ac492e191a4605978c655f8ce4ae806766000809054906101000a900473ffffffffffffffffffffffffffffffffffffffff16604051808273ffffffffffffffffffffffffffffffffffffffff1673ffffffffffffffffffffffffffffffffffffffff16815260200191505060405180910390a160008060146101000a81548160ff021916908315150217905550620001e66301ffc9a77c01000000000000000000000000000000000000000000000000000000000262000333640100000000026401000000009004565b620002236380ac58cd7c01000000000000000000000000000000000000000000000000000000000262000333640100000000026401000000009004565b6200026063780e9d637c01000000000000000000000000000000000000000000000000000000000262000333640100000000026401000000009004565b82600f908051906020019062000278929190620003f1565b50816010908051906020019062000291929190620003f1565b508060119080519060200190620002aa929190620003f1565b50620002e8635b5e139f7c01000000000000000000000000000000000000000000000000000000000262000333640100000000026401000000009004565b50505080601360006101000a81548173ffffffffffffffffffffffffffffffffffffffff021916908373ffffffffffffffffffffffffffffffffffffffff16021790555050620004a0565b63ffffffff7c010000000000000000000000000000000000000000000000000000000002817bffffffffffffffffffffffffffffffffffffffffffffffffffffffff1916141515156200038557600080fd5b6001806000837bffffffffffffffffffffffffffffffffffffffffffffffffffffffff19167bffffffffffffffffffffffffffffffffffffffffffffffffffffffff1916815260200190815260200160002060006101000a81548160ff02191690831515021790555050565b828054600181600116156101000203166002900490600052602060002090601f016020900481019282601f106200043457805160ff191683800117855562000465565b8280016001018555821562000465579182015b828111156200046457825182559160200191906001019062000447565b5b50905062000474919062000478565b5090565b6200049d91905b80821115620004995760008160009055506001016200047f565b5090565b90565b613cf880620004b06000396000f3fe608060405234801561001057600080fd5b50600436106101ab576000357c0100000000000000000000000000000000000000000000000000000000900480636352211e116100fb578063b88d4fde116100b4578063d547cfb71161008e578063d547cfb7146110d8578063db1de3b71461115b578063e985e9c5146111a1578063f2fde38b1461121d576101ab565b8063b88d4fde14610c5c578063c87b56dd14610d61578063c9831ab414610e08576101ab565b80636352211e146107a957806370a082311461081757806373f3be361461086f578063893d20e814610b3f57806395d89b4114610b89578063a22cb46514610c0c576101ab565b806327dc297e1161016857806340c10f191161014257806340c10f191461066357806342842e0e146106c95780634f6ccce7146107375780635c40f6f414610779576101ab565b806327dc297e146103e05780632f745c59146104a557806338bbfa5014610507576101ab565b806301ffc9a7146101b057806306fdde0314610215578063081812fc14610298578063095ea7b31461030657806318160ddd1461035457806323b872dd14610372575b600080fd5b6101fb600480360360208110156101c657600080fd5b8101908080357bffffffffffffffffffffffffffffffffffffffffffffffffffffffff19169060200190929190505050611261565b604051808215151515815260200191505060405180910390f35b61021d6112c9565b6040518080602001828103825283818151815260200191508051906020019080838360005b8381101561025d578082015181840152602081019050610242565b50505050905090810190601f16801561028a5780820380516001836020036101000a031916815260200191505b509250505060405180910390f35b6102c4600480360360208110156102ae57600080fd5b810190808035906020019092919050505061136b565b604051808273ffffffffffffffffffffffffffffffffffffffff1673ffffffffffffffffffffffffffffffffffffffff16815260200191505060405180910390f35b6103526004803603604081101561031c57600080fd5b81019080803573ffffffffffffffffffffffffffffffffffffffff169060200190929190803590602001909291905050506113a8565b005b61035c611634565b6040518082815260200191505060405180910390f35b6103de6004803603606081101561038857600080fd5b81019080803573ffffffffffffffffffffffffffffffffffffffff169060200190929190803573ffffffffffffffffffffffffffffffffffffffff16906020019092919080359060200190929190505050611641565b005b6104a3600480360360408110156103f657600080fd5b81019080803590602001909291908035906020019064010000000081111561041d57600080fd5b82018360208201111561042f57600080fd5b8035906020019184600183028401116401000000008311171561045157600080fd5b91908080601f016020809104026020016040519081016040528093929190818152602001838380828437600081840152601f19601f820116905080830192505050505050509192919290505050611666565b005b6104f1600480360360408110156104bb57600080fd5b81019080803573ffffffffffffffffffffffffffffffffffffffff169060200190929190803590602001909291905050506116a9565b6040518082815260200191505060405180910390f35b6106616004803603606081101561051d57600080fd5b81019080803590602001909291908035906020019064010000000081111561054457600080fd5b82018360208201111561055657600080fd5b8035906020019184600183028401116401000000008311171561057857600080fd5b91908080601f016020809104026020016040519081016040528093929190818152602001838380828437600081840152601f19601f820116905080830192505050505050509192919290803590602001906401000000008111156105db57600080fd5b8201836020820111156105ed57600080fd5b8035906020019184600183028401116401000000008311171561060f57600080fd5b91908080601f016020809104026020016040519081016040528093929190818152602001838380828437600081840152601f19601f820116905080830192505050505050509192919290505050611720565b005b6106af6004803603604081101561067957600080fd5b81019080803573ffffffffffffffffffffffffffffffffffffffff16906020019092919080359060200190929190505050611725565b604051808215151515815260200191505060405180910390f35b610735600480360360608110156106df57600080fd5b81019080803573ffffffffffffffffffffffffffffffffffffffff169060200190929190803573ffffffffffffffffffffffffffffffffffffffff169060200190929190803590602001909291905050506117eb565b005b6107636004803603602081101561074d57600080fd5b810190808035906020019092919050505061180c565b6040518082815260200191505060405180910390f35b6107a76004803603602081101561078f57600080fd5b81019080803515159060200190929190505050611844565b005b6107d5600480360360208110156107bf57600080fd5b8101908080359060200190929190505050611993565b604051808273ffffffffffffffffffffffffffffffffffffffff1673ffffffffffffffffffffffffffffffffffffffff16815260200191505060405180910390f35b6108596004803603602081101561082d57600080fd5b81019080803573ffffffffffffffffffffffffffffffffffffffff1690602001909291905050506119d0565b6040518082815260200191505060405180910390f35b610b3d60048036036102c081101561088657600080fd5b81019080803573ffffffffffffffffffffffffffffffffffffffff1690602001909291908035906020019092919080604001906002806020026040519081016040528092919082600260200280828437600081840152601f19601f820116905080830192505050505050919291929080604001906002806020026040519081016040528092919082600260200280828437600081840152601f19601f82011690508083019250505050505091929192908060800190600280602002604051908101604052809291906000905b828210156109a6578382604002016002806020026040519081016040528092919082600260200280828437600081840152601f19601f82011690508083019250505050505081526020019060010190610952565b50505050919291929080604001906002806020026040519081016040528092919082600260200280828437600081840152601f19601f820116905080830192505050505050919291929080604001906002806020026040519081016040528092919082600260200280828437600081840152601f19601f820116905080830192505050505050919291929080604001906002806020026040519081016040528092919082600260200280828437600081840152601f19601f820116905080830192505050505050919291929080604001906002806020026040519081016040528092919082600260200280828437600081840152601f19601f820116905080830192505050505050919291929080604001906002806020026040519081016040528092919082600260200280828437600081840152601f19601f820116905080830192505050505050919291929080604001906002806020026040519081016040528092919082600260200280828437600081840152601f19601f8201169050808301925050505050509192919290505050611a20565b005b610b4761212f565b604051808273ffffffffffffffffffffffffffffffffffffffff1673ffffffffffffffffffffffffffffffffffffffff16815260200191505060405180910390f35b610b91612158565b6040518080602001828103825283818151815260200191508051906020019080838360005b83811015610bd1578082015181840152602081019050610bb6565b50505050905090810190601f168015610bfe5780820380516001836020036101000a031916815260200191505b509250505060405180910390f35b610c5a60048036036040811015610c2257600080fd5b81019080803573ffffffffffffffffffffffffffffffffffffffff1690602001909291908035151590602001909291905050506121fa565b005b610d5f60048036036080811015610c7257600080fd5b81019080803573ffffffffffffffffffffffffffffffffffffffff169060200190929190803573ffffffffffffffffffffffffffffffffffffffff1690602001909291908035906020019092919080359060200190640100000000811115610cd957600080fd5b820183602082011115610ceb57600080fd5b80359060200191846001830284011164010000000083111715610d0d57600080fd5b91908080601f016020809104026020016040519081016040528093929190818152602001838380828437600081840152601f19601f820116905080830192505050505050509192919290505050612336565b005b610d8d60048036036020811015610d7757600080fd5b810190808035906020019092919050505061235e565b6040518080602001828103825283818151815260200191508051906020019080838360005b83811015610dcd578082015181840152602081019050610db2565b50505050905090810190601f168015610dfa5780820380516001836020036101000a031916815260200191505b509250505060405180910390f35b6110d660048036036102c0811015610e1f57600080fd5b81019080803573ffffffffffffffffffffffffffffffffffffffff1690602001909291908035906020019092919080604001906002806020026040519081016040528092919082600260200280828437600081840152601f19601f820116905080830192505050505050919291929080604001906002806020026040519081016040528092919082600260200280828437600081840152601f19601f82011690508083019250505050505091929192908060800190600280602002604051908101604052809291906000905b82821015610f3f578382604002016002806020026040519081016040528092919082600260200280828437600081840152601f19601f82011690508083019250505050505081526020019060010190610eeb565b50505050919291929080604001906002806020026040519081016040528092919082600260200280828437600081840152601f19601f820116905080830192505050505050919291929080604001906002806020026040519081016040528092919082600260200280828437600081840152601f19601f820116905080830192505050505050919291929080604001906002806020026040519081016040528092919082600260200280828437600081840152601f19601f820116905080830192505050505050919291929080604001906002806020026040519081016040528092919082600260200280828437600081840152601f19601f820116905080830192505050505050919291929080604001906002806020026040519081016040528092919082600260200280828437600081840152601f19601f820116905080830192505050505050919291929080604001906002806020026040519081016040528092919082600260200280828437600081840152601f19601f8201169050808301925050505050509192919290505050612490565b005b6110e06124bb565b6040518080602001828103825283818151815260200191508051906020019080838360005b83811015611120578082015181840152602081019050611105565b50505050905090810190601f16801561114d5780820380516001836020036101000a031916815260200191505b509250505060405180910390f35b6111876004803603602081101561117157600080fd5b810190808035906020019092919050505061255d565b604051808215151515815260200191505060405180910390f35b611203600480360360408110156111b757600080fd5b81019080803573ffffffffffffffffffffffffffffffffffffffff169060200190929190803573ffffffffffffffffffffffffffffffffffffffff1690602001909291905050506125de565b604051808215151515815260200191505060405180910390f35b61125f6004803603602081101561123357600080fd5b81019080803573ffffffffffffffffffffffffffffffffffffffff169060200190929190505050612672565b005b600060016000837bffffffffffffffffffffffffffffffffffffffffffffffffffffffff19167bffffffffffffffffffffffffffffffffffffffffffffffffffffffff1916815260200190815260200160002060009054906101000a900460ff169050919050565b6060600f8054600181600116156101000203166002900480601f0160208091040260200160405190810160405280929190818152602001828054600181600116156101000203166002900480156113615780601f1061133657610100808354040283529160200191611361565b820191906000526020600020905b81548152906001019060200180831161134457829003601f168201915b5050505050905090565b60006003600083815260200190815260200160002060009054906101000a900473ffffffffffffffffffffffffffffffffffffffff169050919050565b6002600082815260200190815260200160002060009054906101000a900473ffffffffffffffffffffffffffffffffffffffff1673ffffffffffffffffffffffffffffffffffffffff168273ffffffffffffffffffffffffffffffffffffffff161415151561147f576040517f08c379a000000000000000000000000000000000000000000000000000000000815260040180806020018281038252601d8152602001807f416c7265616479206f776e65642062792074686973206164647265737300000081525060200191505060405180910390fd5b6114bc6002600083815260200190815260200160002060009054906101000a900473ffffffffffffffffffffffffffffffffffffffff16336125de565b806114f957506114ca61212f565b73ffffffffffffffffffffffffffffffffffffffff163373ffffffffffffffffffffffffffffffffffffffff16145b1515611550576040517f08c379a0000000000000000000000000000000000000000000000000000000008152600401808060200182810382526057815260200180613c446057913960600191505060405180910390fd5b816003600083815260200190815260200160002060006101000a81548173ffffffffffffffffffffffffffffffffffffffff021916908373ffffffffffffffffffffffffffffffffffffffff160217905550808273ffffffffffffffffffffffffffffffffffffffff166002600084815260200190815260200160002060009054906101000a900473ffffffffffffffffffffffffffffffffffffffff1673ffffffffffffffffffffffffffffffffffffffff167f8c5be1e5ebec7d5bd14f71427d1e84f3dd0314c0f7b2291e5b200ac8c7c3b92560405160405180910390a45050565b6000600880549050905090565b61164b33826127f5565b151561165657600080fd5b61166183838361288a565b505050565b6116a5828260006040519080825280601f01601f19166020018201604052801561169f5781602001600182028038833980820191505090505b50611720565b5050565b60006116b4836119d0565b821015156116c157600080fd5b600660008473ffffffffffffffffffffffffffffffffffffffff1673ffffffffffffffffffffffffffffffffffffffff1681526020019081526020016000208281548110151561170d57fe5b9060005260206000200154905092915050565b505050565b60008060009054906101000a900473ffffffffffffffffffffffffffffffffffffffff1673ffffffffffffffffffffffffffffffffffffffff163373ffffffffffffffffffffffffffffffffffffffff161415156117ce576040517f08c379a000000000000000000000000000000000000000000000000000000000815260040180806020018281038252602a815260200180613bf9602a913960400191505060405180910390fd5b6117d883836128ae565b6117e1826128cf565b6001905092915050565b6118078383836020604051908101604052806000815250612336565b505050565b6000611816611634565b8210151561182357600080fd5b60088281548110151561183257fe5b90600052602060002001549050919050565b6000809054906101000a900473ffffffffffffffffffffffffffffffffffffffff1673ffffffffffffffffffffffffffffffffffffffff163373ffffffffffffffffffffffffffffffffffffffff161415156118eb576040517f08c379a000000000000000000000000000000000000000000000000000000000815260040180806020018281038252602a815260200180613bf9602a913960400191505060405180910390fd5b801515600060149054906101000a900460ff16151514151515611976576040517f08c379a00000000000000000000000000000000000000000000000000000000081526004018080602001828103825260158152602001807f416c726561647920696e2074686973207374617465000000000000000000000081525060200191505060405180910390fd5b80600060146101000a81548160ff02191690831515021790555050565b60006002600083815260200190815260200160002060009054906101000a900473ffffffffffffffffffffffffffffffffffffffff169050919050565b6000611a19600460008473ffffffffffffffffffffffffffffffffffffffff1673ffffffffffffffffffffffffffffffffffffffff168152602001908152602001600020612a22565b9050919050565b601360009054906101000a900473ffffffffffffffffffffffffffffffffffffffff1673ffffffffffffffffffffffffffffffffffffffff1663fe01ff628a8a8a8a8a8a8a8a8a6040518a63ffffffff167c0100000000000000000000000000000000000000000000000000000000028152600401808a600260200280838360005b83811015611abd578082015181840152602081019050611aa2565b5050505090500189600260200280838360005b83811015611aeb578082015181840152602081019050611ad0565b505050509050018860026000925b81841015611b3f5782846020020151600260200280838360005b83811015611b2e578082015181840152602081019050611b13565b505050509050019260010192611af9565b9250505087600260200280838360005b83811015611b6a578082015181840152602081019050611b4f565b5050505090500186600260200280838360005b83811015611b98578082015181840152602081019050611b7d565b5050505090500185600260200280838360005b83811015611bc6578082015181840152602081019050611bab565b5050505090500184600260200280838360005b83811015611bf4578082015181840152602081019050611bd9565b5050505090500183600260200280838360005b83811015611c22578082015181840152602081019050611c07565b5050505090500182600260200280838360005b83811015611c50578082015181840152602081019050611c35565b505050509050019950505050505050505050602060405180830381600087803b158015611c7c57600080fd5b505af1158015611c90573d6000803e3d6000fd5b505050506040513d6020811015611ca657600080fd5b81019080805190602001909291905050501515611d2b576040517f08c379a000000000000000000000000000000000000000000000000000000000815260040180806020018281038252601d8152602001807f556e61626c6520746f207665726966792074686520736f6c7574696f6e00000081525060200191505060405180910390fd5b6000898989898989898989604051602001808a600260200280838360005b83811015611d64578082015181840152602081019050611d49565b5050505090500189600260200280838360005b83811015611d92578082015181840152602081019050611d77565b505050509050018860026000925b81841015611de65782846020020151600260200280838360005b83811015611dd5578082015181840152602081019050611dba565b505050509050019260010192611da0565b9250505087600260200280838360005b83811015611e11578082015181840152602081019050611df6565b5050505090500186600260200280838360005b83811015611e3f578082015181840152602081019050611e24565b5050505090500185600260200280838360005b83811015611e6d578082015181840152602081019050611e52565b5050505090500184600260200280838360005b83811015611e9b578082015181840152602081019050611e80565b5050505090500183600260200280838360005b83811015611ec9578082015181840152602081019050611eae565b5050505090500182600260200280838360005b83811015611ef7578082015181840152602081019050611edc565b505050509050019950505050505050505050604051602081830303815290604052805190602001209050611f2a8161255d565b1515611f9e576040517f08c379a00000000000000000000000000000000000000000000000000000000081526004018080602001828103825260188152602001807f536f6c7574696f6e20616c7265616479206578736974732e000000000000000081525060200191505060405180910390fd5b611fa6613af7565b60408051908101604052808d81526020018e73ffffffffffffffffffffffffffffffffffffffff16815250905080601560008481526020019081526020016000206000820151816000015560208201518160010160006101000a81548173ffffffffffffffffffffffffffffffffffffffff021916908373ffffffffffffffffffffffffffffffffffffffff160217905550905050601481908060018154018082558091505090600182039060005260206000209060020201600090919290919091506000820151816000015560208201518160010160006101000a81548173ffffffffffffffffffffffffffffffffffffffff021916908373ffffffffffffffffffffffffffffffffffffffff1602179055505050507fe9670965671257fe1303dd6edc2c949e84c4103d01e2a2c58658b7cd17354dbc8d604051808273ffffffffffffffffffffffffffffffffffffffff1673ffffffffffffffffffffffffffffffffffffffff16815260200191505060405180910390a150505050505050505050505050565b60008060009054906101000a900473ffffffffffffffffffffffffffffffffffffffff16905090565b606060108054600181600116156101000203166002900480601f0160208091040260200160405190810160405280929190818152602001828054600181600116156101000203166002900480156121f05780601f106121c5576101008083540402835291602001916121f0565b820191906000526020600020905b8154815290600101906020018083116121d357829003601f168201915b5050505050905090565b3373ffffffffffffffffffffffffffffffffffffffff168273ffffffffffffffffffffffffffffffffffffffff161415151561223557600080fd5b80600560003373ffffffffffffffffffffffffffffffffffffffff1673ffffffffffffffffffffffffffffffffffffffff16815260200190815260200160002060008473ffffffffffffffffffffffffffffffffffffffff1673ffffffffffffffffffffffffffffffffffffffff16815260200190815260200160002060006101000a81548160ff0219169083151502179055508173ffffffffffffffffffffffffffffffffffffffff163373ffffffffffffffffffffffffffffffffffffffff167f17307eab39ab6107e8899845ad3d59bd9653f200f220920489ca2b5937696c3183604051808215151515815260200191505060405180910390a35050565b612341848484611641565b61234d84848484612a30565b151561235857600080fd5b50505050565b606061236982612c53565b15156123dd576040517f08c379a00000000000000000000000000000000000000000000000000000000081526004018080602001828103825260148152602001807f746f6b656e20646f6573206e6f7420657869737400000000000000000000000081525060200191505060405180910390fd5b601260008381526020019081526020016000208054600181600116156101000203166002900480601f0160208091040260200160405190810160405280929190818152602001828054600181600116156101000203166002900480156124845780601f1061245957610100808354040283529160200191612484565b820191906000526020600020905b81548152906001019060200180831161246757829003601f168201915b50505050509050919050565b6124a38b8b8b8b8b8b8b8b8b8b8b611a20565b6124ad8b8b611725565b505050505050505050505050565b606060118054600181600116156101000203166002900480601f0160208091040260200160405190810160405280929190818152602001828054600181600116156101000203166002900480156125535780601f1061252857610100808354040283529160200191612553565b820191906000526020600020905b81548152906001019060200180831161253657829003601f168201915b5050505050905090565b60008060019050600073ffffffffffffffffffffffffffffffffffffffff166015600085815260200190815260200160002060010160009054906101000a900473ffffffffffffffffffffffffffffffffffffffff1673ffffffffffffffffffffffffffffffffffffffff161415156125d557600090505b80915050919050565b6000600560008473ffffffffffffffffffffffffffffffffffffffff1673ffffffffffffffffffffffffffffffffffffffff16815260200190815260200160002060008373ffffffffffffffffffffffffffffffffffffffff1673ffffffffffffffffffffffffffffffffffffffff16815260200190815260200160002060009054906101000a900460ff16905092915050565b6000809054906101000a900473ffffffffffffffffffffffffffffffffffffffff1673ffffffffffffffffffffffffffffffffffffffff163373ffffffffffffffffffffffffffffffffffffffff16141515612719576040517f08c379a000000000000000000000000000000000000000000000000000000000815260040180806020018281038252602a815260200180613bf9602a913960400191505060405180910390fd5b61272281612cc5565b15151561272e57600080fd5b806000806101000a81548173ffffffffffffffffffffffffffffffffffffffff021916908373ffffffffffffffffffffffffffffffffffffffff1602179055507fac9a252a3ed2d3fcc198677953ffe98ac492e191a4605978c655f8ce4ae806766000809054906101000a900473ffffffffffffffffffffffffffffffffffffffff16604051808273ffffffffffffffffffffffffffffffffffffffff1673ffffffffffffffffffffffffffffffffffffffff16815260200191505060405180910390a150565b60008061280183611993565b90508073ffffffffffffffffffffffffffffffffffffffff168473ffffffffffffffffffffffffffffffffffffffff16148061287057508373ffffffffffffffffffffffffffffffffffffffff166128588461136b565b73ffffffffffffffffffffffffffffffffffffffff16145b80612881575061288081856125de565b5b91505092915050565b612895838383612cd8565b61289f8382612f2d565b6128a982826130d1565b505050565b6128b88282613198565b6128c282826130d1565b6128cb8161336c565b5050565b6128d881612c53565b151561294c576040517f08c379a00000000000000000000000000000000000000000000000000000000081526004018080602001828103825260148152602001807f746f6b656e20646f6573206e6f7420657869737400000000000000000000000081525060200191505060405180910390fd5b6129f860118054600181600116156101000203166002900480601f0160208091040260200160405190810160405280929190818152602001828054600181600116156101000203166002900480156129e55780601f106129ba576101008083540402835291602001916129e5565b820191906000526020600020905b8154815290600101906020018083116129c857829003601f168201915b50505050506129f3836133b8565b613511565b601260008381526020019081526020016000209080519060200190612a1e929190613b27565b5050565b600081600001549050919050565b6000612a518473ffffffffffffffffffffffffffffffffffffffff16612cc5565b1515612a605760019050612c4b565b60008473ffffffffffffffffffffffffffffffffffffffff1663150b7a02338887876040518563ffffffff167c0100000000000000000000000000000000000000000000000000000000028152600401808573ffffffffffffffffffffffffffffffffffffffff1673ffffffffffffffffffffffffffffffffffffffff1681526020018473ffffffffffffffffffffffffffffffffffffffff1673ffffffffffffffffffffffffffffffffffffffff16815260200183815260200180602001828103825283818151815260200191508051906020019080838360005b83811015612b57578082015181840152602081019050612b3c565b50505050905090810190601f168015612b845780820380516001836020036101000a031916815260200191505b5095505050505050602060405180830381600087803b158015612ba657600080fd5b505af1158015612bba573d6000803e3d6000fd5b505050506040513d6020811015612bd057600080fd5b8101908080519060200190929190505050905063150b7a027c0100000000000000000000000000000000000000000000000000000000027bffffffffffffffffffffffffffffffffffffffffffffffffffffffff1916817bffffffffffffffffffffffffffffffffffffffffffffffffffffffff1916149150505b949350505050565b6000806002600084815260200190815260200160002060009054906101000a900473ffffffffffffffffffffffffffffffffffffffff169050600073ffffffffffffffffffffffffffffffffffffffff168173ffffffffffffffffffffffffffffffffffffffff161415915050919050565b600080823b905060008111915050919050565b8273ffffffffffffffffffffffffffffffffffffffff16612cf882611993565b73ffffffffffffffffffffffffffffffffffffffff16141515612d66576040517f08c379a0000000000000000000000000000000000000000000000000000000008152600401808060200182810382526021815260200180613c236021913960400191505060405180910390fd5b612d6f82612cc5565b151515612de4576040517f08c379a000000000000000000000000000000000000000000000000000000000815260040180806020018281038252601c8152602001807f54686520676976656e206164647265737320697320696e76616c69640000000081525060200191505060405180910390fd5b612ded81613558565b612e34600460008573ffffffffffffffffffffffffffffffffffffffff1673ffffffffffffffffffffffffffffffffffffffff168152602001908152602001600020613618565b612e7b600460008473ffffffffffffffffffffffffffffffffffffffff1673ffffffffffffffffffffffffffffffffffffffff16815260200190815260200160002061363b565b816002600083815260200190815260200160002060006101000a81548173ffffffffffffffffffffffffffffffffffffffff021916908373ffffffffffffffffffffffffffffffffffffffff160217905550808273ffffffffffffffffffffffffffffffffffffffff168473ffffffffffffffffffffffffffffffffffffffff167fddf252ad1be2c89b69c2b068fc378daa952ba7f163c4a11628f55a4df523b3ef60405160405180910390a4505050565b6000612f856001600660008673ffffffffffffffffffffffffffffffffffffffff1673ffffffffffffffffffffffffffffffffffffffff1681526020019081526020016000208054905061365190919063ffffffff16565b90506000600760008481526020019081526020016000205490508181141515613078576000600660008673ffffffffffffffffffffffffffffffffffffffff1673ffffffffffffffffffffffffffffffffffffffff16815260200190815260200160002083815481101515612ff657fe5b9060005260206000200154905080600660008773ffffffffffffffffffffffffffffffffffffffff1673ffffffffffffffffffffffffffffffffffffffff1681526020019081526020016000208381548110151561305057fe5b9060005260206000200181905550816007600083815260200190815260200160002081905550505b600660008573ffffffffffffffffffffffffffffffffffffffff1673ffffffffffffffffffffffffffffffffffffffff1681526020019081526020016000208054809190600190036130ca9190613ba7565b5050505050565b600660008373ffffffffffffffffffffffffffffffffffffffff1673ffffffffffffffffffffffffffffffffffffffff168152602001908152602001600020805490506007600083815260200190815260200160002081905550600660008373ffffffffffffffffffffffffffffffffffffffff1673ffffffffffffffffffffffffffffffffffffffff1681526020019081526020016000208190806001815401808255809150509060018203906000526020600020016000909192909190915055505050565b6131a181612c53565b156131f7576040517f08c379a0000000000000000000000000000000000000000000000000000000008152600401808060200182810382526032815260200180613c9b6032913960400191505060405180910390fd5b61320082612cc5565b15613273576040517f08c379a000000000000000000000000000000000000000000000000000000000815260040180806020018281038252601c8152602001807f54686520676976656e206164647265737320697320696e76616c69640000000081525060200191505060405180910390fd5b6132ba600460008473ffffffffffffffffffffffffffffffffffffffff1673ffffffffffffffffffffffffffffffffffffffff16815260200190815260200160002061363b565b816002600083815260200190815260200160002060006101000a81548173ffffffffffffffffffffffffffffffffffffffff021916908373ffffffffffffffffffffffffffffffffffffffff160217905550808273ffffffffffffffffffffffffffffffffffffffff16600073ffffffffffffffffffffffffffffffffffffffff167fddf252ad1be2c89b69c2b068fc378daa952ba7f163c4a11628f55a4df523b3ef60405160405180910390a45050565b6008805490506009600083815260200190815260200160002081905550600881908060018154018082558091505090600182039060005260206000200160009091929091909150555050565b60606000821415613400576040805190810160405280600181526020017f3000000000000000000000000000000000000000000000000000000000000000815250905061350c565b600082905060005b60008214151561342e578080600101915050600a8281151561342657fe5b049150613408565b6060816040519080825280601f01601f1916602001820160405280156134635781602001600182028038833980820191505090505b50905060006001830390505b60008614151561350457600a8681151561348557fe5b066030017f0100000000000000000000000000000000000000000000000000000000000000028282806001900393508151811015156134c057fe5b9060200101907effffffffffffffffffffffffffffffffffffffffffffffffffffffffffffff1916908160001a905350600a868115156134fc57fe5b04955061346f565b819450505050505b919050565b606061355083836020604051908101604052806000815250602060405190810160405280600081525060206040519081016040528060008152506136dc565b905092915050565b600073ffffffffffffffffffffffffffffffffffffffff166003600083815260200190815260200160002060009054906101000a900473ffffffffffffffffffffffffffffffffffffffff1673ffffffffffffffffffffffffffffffffffffffff161415156136155760006003600083815260200190815260200160002060006101000a81548173ffffffffffffffffffffffffffffffffffffffff021916908373ffffffffffffffffffffffffffffffffffffffff1602179055505b50565b6136306001826000015461365190919063ffffffff16565b816000018190555050565b6001816000016000828254019250508190555050565b60008282111515156136cb576040517f08c379a000000000000000000000000000000000000000000000000000000000815260040180806020018281038252601e8152602001807f536166654d6174683a207375627472616374696f6e206f766572666c6f77000081525060200191505060405180910390fd5b600082840390508091505092915050565b6060808690506060869050606086905060608690506060869050606081518351855187518951010101016040519080825280601f01601f1916602001820160405280156137385781602001600182028038833980820191505090505b509050606081905060008090506000809050600090505b885181101561380257888181518110151561376657fe5b9060200101517f010000000000000000000000000000000000000000000000000000000000000090047f01000000000000000000000000000000000000000000000000000000000000000283838060010194508151811015156137c557fe5b9060200101907effffffffffffffffffffffffffffffffffffffffffffffffffffffffffffff1916908160001a905350808060010191505061374f565b600090505b87518110156138ba57878181518110151561381e57fe5b9060200101517f010000000000000000000000000000000000000000000000000000000000000090047f010000000000000000000000000000000000000000000000000000000000000002838380600101945081518110151561387d57fe5b9060200101907effffffffffffffffffffffffffffffffffffffffffffffffffffffffffffff1916908160001a9053508080600101915050613807565b600090505b86518110156139725786818151811015156138d657fe5b9060200101517f010000000000000000000000000000000000000000000000000000000000000090047f010000000000000000000000000000000000000000000000000000000000000002838380600101945081518110151561393557fe5b9060200101907effffffffffffffffffffffffffffffffffffffffffffffffffffffffffffff1916908160001a90535080806001019150506138bf565b600090505b8551811015613a2a57858181518110151561398e57fe5b9060200101517f010000000000000000000000000000000000000000000000000000000000000090047f01000000000000000000000000000000000000000000000000000000000000000283838060010194508151811015156139ed57fe5b9060200101907effffffffffffffffffffffffffffffffffffffffffffffffffffffffffffff1916908160001a9053508080600101915050613977565b600090505b8451811015613ae2578481815181101515613a4657fe5b9060200101517f010000000000000000000000000000000000000000000000000000000000000090047f0100000000000000000000000000000000000000000000000000000000000000028383806001019450815181101515613aa557fe5b9060200101907effffffffffffffffffffffffffffffffffffffffffffffffffffffffffffff1916908160001a9053508080600101915050613a2f565b82995050505050505050505095945050505050565b604080519081016040528060008152602001600073ffffffffffffffffffffffffffffffffffffffff1681525090565b828054600181600116156101000203166002900490600052602060002090601f016020900481019282601f10613b6857805160ff1916838001178555613b96565b82800160010185558215613b96579182015b82811115613b95578251825591602001919060010190613b7a565b5b509050613ba39190613bd3565b5090565b815481835581811115613bce57818360005260206000209182019101613bcd9190613bd3565b5b505050565b613bf591905b80821115613bf1576000816000905550600101613bd9565b5090565b9056fe4f6e6c7920636f6e7472616374206f776e65722063616e2063616c6c20746869732066756e6374696f6e546f6b656e206e6f74206f776e6564206279202766726f6d2720616464726573737265717569726520746865206d73672073656e64657220746f20626520746865206f776e6572206f662074686520636f6e7472616374206f72206973417070726f766564466f72416c6c282920746f2062652074727565746f6b656e496420616c726561647920657869737473206f7220676976656e206164647265737320697320696e76616c6964a165627a7a7230582030933fd2c2e4df0ca78e3a361611dccbf97c3285a23a1cba66224fadd5bbb4a5002968747470733a2f2f73332d75732d776573742d322e616d617a6f6e6177732e636f6d2f756461636974792d626c6f636b636861696e2f63617073746f6e652f",
  "source": "pragma solidity ^0.5.0;\n\n// TODO define a contract call to the zokrates generated solidity contract <Verifier> or <renamedVerifier>\nimport \"./Verifier.sol\";\nimport \"./ERC721Mintable.sol\";\n\n\n\n// TODO define another contract named SolnSquareVerifier that inherits from your ERC721Mintable class\ncontract SolnSquareVerifier is ERC721Mintable {\n    Verifier verifier;\n\n    constructor(address _verifierContract) ERC721Mintable() public{\n        verifier = Verifier(_verifierContract);\n    }\n    // TODO define a solutions struct that can hold an index & an address\n\n    struct Solution {\n    \tuint256 id;\n\t\taddress solverAddress;\n\t}\n\n// TODO define an array of the above struct\n    Solution[] solutions;\n\n\n// TODO define a mapping to store unique solutions submitted\n    mapping(bytes32=>Solution) private solutionsSubmitted;\n\n\n// TODO Create an event to emit when a solution is added\n\tevent solutionAdded(address solverAddress);\n\n\n\n// TODO Create a function to add the solutions to the array and emit the event\n    function addSolution(address _solverAddress, uint256 _id, uint[2] memory A, uint[2] memory A_p, uint[2][2] memory B, uint[2] memory B_p, uint[2] memory C, uint[2] memory C_p, uint[2] memory H, uint[2] memory K, uint[2] memory input) public {   \n        require(verifier.verifyTx(A, A_p, B, B_p, C, C_p, H, K, input), \"Unable to verify the solution\");\n    \tbytes32 key = keccak256(abi.encodePacked(A, A_p, B, B_p, C, C_p, H, K, input));\n\t\trequire(isSolutionUnique(key), \"Solution already exsits.\");\n        Solution memory sol = Solution({id: _id, solverAddress: _solverAddress});\n        solutionsSubmitted[key] = sol;\n        solutions.push(sol);\n        emit solutionAdded(_solverAddress);\n    }\n\n    function isSolutionUnique(bytes32 key) public view returns (bool){\n    \tbool isUnique = true;\n    \tif (solutionsSubmitted[key].solverAddress != address(0)){\n    \t\tisUnique = false;\n    \t}\n\t\treturn isUnique;\t\n    }\n\n\n// TODO Create a function to mint new NFT only after the solution has been verified\n//  - make sure the solution is unique (has not been used before)\n//  - make sure you handle metadata as well as tokenSuplly\n\n  function mintNewNFT(address _to, uint256 _tokenId, uint[2] memory A, uint[2] memory A_p, uint[2][2] memory B, uint[2] memory B_p, uint[2] memory C, uint[2] memory C_p, uint[2] memory H, uint[2] memory K, uint[2] memory input) public{\n\t\taddSolution(_to, _tokenId, A, A_p, B, B_p, C, C_p, H, K, input);\n\t\tsuper.mint(_to, _tokenId);\n\t}\n\n\n\n\n}\n\n\n\n\n\n\n\n\n",
  "sourcePath": "/Users/bhavyesharma/Desktop/UDACITYND/Blockchain-Capstone/eth-contracts/contracts/SolnSquareVerifier.sol",
  "compiler": {
    "name": "solc",
    "version": "0.5.2+commit.1df8f40c.Emscripten.clang"
  },
  "schemaVersion": "3.0.10",
  "updatedAt": "2019-06-11T11:34:38.937Z",
  "devdoc": {
    "methods": {
      "isApprovedForAll(address,address)": {
        "details": "Tells whether an operator is approved by a given owner",
        "params": {
          "operator": "operator address which you want to query the approval of",
          "owner": "owner address which you want to query the approval of"
        },
        "return": "bool whether the given operator is approved by the given owner"
      },
      "setApprovalForAll(address,bool)": {
        "details": "Sets or unsets the approval of a given operator An operator is allowed to transfer all tokens of the sender on their behalf",
        "params": {
          "approved": "representing the status of the approval to be set",
          "to": "operator address to set the approval"
        }
      },
      "supportsInterface(bytes4)": {
        "details": "implement supportsInterface(bytes4) using a lookup table"
      },
      "tokenByIndex(uint256)": {
        "details": "Gets the token ID at a given index of all the tokens in this contract Reverts if the index is greater or equal to the total number of tokens",
        "params": {
          "index": "uint256 representing the index to be accessed of the tokens list"
        },
        "return": "uint256 token ID at the given index of the tokens list"
      },
      "tokenOfOwnerByIndex(address,uint256)": {
        "details": "Gets the token ID at a given index of the tokens list of the requested owner",
        "params": {
          "index": "uint256 representing the index to be accessed of the requested tokens list",
          "owner": "address owning the tokens list to be accessed"
        },
        "return": "uint256 token ID at the given index of the tokens list owned by the requested address"
      },
      "totalSupply()": {
        "details": "Gets the total amount of tokens stored by the contract",
        "return": "uint256 representing the total amount of tokens"
      }
    }
  },
  "userdoc": {
    "methods": {}
  }
}